{"contracts/ezklaimNoVerify.sol":{"eZKlaimNoVerify":{"abi":[{"anonymous":false,"inputs":[{"indexed":false,"internalType":"bytes32","name":"hash","type":"bytes32"},{"indexed":false,"internalType":"address","name":"dest","type":"address"}],"name":"Claim","type":"event"},{"inputs":[{"internalType":"bytes32","name":"","type":"bytes32"}],"name":"balances","outputs":[{"internalType":"uint256","name":"","type":"uint256"}],"stateMutability":"view","type":"function"},{"inputs":[{"internalType":"bytes32","name":"hash","type":"bytes32"},{"internalType":"address","name":"destination","type":"address"}],"name":"claim","outputs":[],"stateMutability":"nonpayable","type":"function"},{"inputs":[{"internalType":"bytes32","name":"hash","type":"bytes32"}],"name":"deposit","outputs":[{"internalType":"bytes32","name":"","type":"bytes32"}],"stateMutability":"payable","type":"function"}],"evm":{"bytecode":{"linkReferences":{},"object":"608060405234801561001057600080fd5b506106af806100206000396000f3fe6080604052600436106100345760003560e01c80638909aa3f1461003957806396c144f014610076578063b214faa51461009f575b600080fd5b34801561004557600080fd5b50610060600480360381019061005b91906102f4565b6100cf565b60405161006d919061033a565b60405180910390f35b34801561008257600080fd5b5061009d600480360381019061009891906103b3565b6100e7565b005b6100b960048036038101906100b491906102f4565b610244565b6040516100c69190610402565b60405180910390f35b60006020528060005260406000206000915090505481565b7f15d625b4b35864ffb5bdbb3fc4b62ceb07b3c588af6945a1934ccb822a239755828260405161011892919061042c565b60405180910390a160008060008481526020019081526020016000205490506000811161017a576040517f08c379a0000000000000000000000000000000000000000000000000000000008152600401610171906104b2565b60405180910390fd5b60008060008581526020019081526020016000208190555060008273ffffffffffffffffffffffffffffffffffffffff16826040516101b890610503565b60006040518083038185875af1925050503d80600081146101f5576040519150601f19603f3d011682016040523d82523d6000602084013e6101fa565b606091505b505090508061023e576040517f08c379a000000000000000000000000000000000000000000000000000000000815260040161023590610564565b60405180910390fd5b50505050565b6000803411610288576040517f08c379a000000000000000000000000000000000000000000000000000000000815260040161027f906105f6565b60405180910390fd5b3460008084815260200190815260200160002060008282546102aa9190610645565b92505081905550819050919050565b600080fd5b6000819050919050565b6102d1816102be565b81146102dc57600080fd5b50565b6000813590506102ee816102c8565b92915050565b60006020828403121561030a576103096102b9565b5b6000610318848285016102df565b91505092915050565b6000819050919050565b61033481610321565b82525050565b600060208201905061034f600083018461032b565b92915050565b600073ffffffffffffffffffffffffffffffffffffffff82169050919050565b600061038082610355565b9050919050565b61039081610375565b811461039b57600080fd5b50565b6000813590506103ad81610387565b92915050565b600080604083850312156103ca576103c96102b9565b5b60006103d8858286016102df565b92505060206103e98582860161039e565b9150509250929050565b6103fc816102be565b82525050565b600060208201905061041760008301846103f3565b92915050565b61042681610375565b82525050565b600060408201905061044160008301856103f3565b61044e602083018461041d565b9392505050565b600082825260208201905092915050565b7f4e6f2062616c616e636520617661696c61626c6520746f20636c61696d000000600082015250565b600061049c601d83610455565b91506104a782610466565b602082019050919050565b600060208201905081810360008301526104cb8161048f565b9050919050565b600081905092915050565b50565b60006104ed6000836104d2565b91506104f8826104dd565b600082019050919050565b600061050e826104e0565b9150819050919050565b7f4661696c656420746f2073656e64204574686572000000000000000000000000600082015250565b600061054e601483610455565b915061055982610518565b602082019050919050565b6000602082019050818103600083015261057d81610541565b9050919050565b7f4465706f7369742076616c7565206d757374206265206772656174657220746860008201527f616e203000000000000000000000000000000000000000000000000000000000602082015250565b60006105e0602483610455565b91506105eb82610584565b604082019050919050565b6000602082019050818103600083015261060f816105d3565b9050919050565b7f4e487b7100000000000000000000000000000000000000000000000000000000600052601160045260246000fd5b600061065082610321565b915061065b83610321565b925082820190508082111561067357610672610616565b5b9291505056fea2646970667358221220c6ed7c56218a77b5a9d4de3d30ac72af277241457f64ce15b2d82249e9da880a64736f6c63430008130033","opcodes":"PUSH1 0x80 PUSH1 0x40 MSTORE CALLVALUE DUP1 ISZERO PUSH2 0x10 JUMPI PUSH1 0x0 DUP1 REVERT JUMPDEST POP PUSH2 0x6AF DUP1 PUSH2 0x20 PUSH1 0x0 CODECOPY PUSH1 0x0 RETURN INVALID PUSH1 0x80 PUSH1 0x40 MSTORE PUSH1 0x4 CALLDATASIZE LT PUSH2 0x34 JUMPI PUSH1 0x0 CALLDATALOAD PUSH1 0xE0 SHR DUP1 PUSH4 0x8909AA3F EQ PUSH2 0x39 JUMPI DUP1 PUSH4 0x96C144F0 EQ PUSH2 0x76 JUMPI DUP1 PUSH4 0xB214FAA5 EQ PUSH2 0x9F JUMPI JUMPDEST PUSH1 0x0 DUP1 REVERT JUMPDEST CALLVALUE DUP1 ISZERO PUSH2 0x45 JUMPI PUSH1 0x0 DUP1 REVERT JUMPDEST POP PUSH2 0x60 PUSH1 0x4 DUP1 CALLDATASIZE SUB DUP2 ADD SWAP1 PUSH2 0x5B SWAP2 SWAP1 PUSH2 0x2F4 JUMP JUMPDEST PUSH2 0xCF JUMP JUMPDEST PUSH1 0x40 MLOAD PUSH2 0x6D SWAP2 SWAP1 PUSH2 0x33A JUMP JUMPDEST PUSH1 0x40 MLOAD DUP1 SWAP2 SUB SWAP1 RETURN JUMPDEST CALLVALUE DUP1 ISZERO PUSH2 0x82 JUMPI PUSH1 0x0 DUP1 REVERT JUMPDEST POP PUSH2 0x9D PUSH1 0x4 DUP1 CALLDATASIZE SUB DUP2 ADD SWAP1 PUSH2 0x98 SWAP2 SWAP1 PUSH2 0x3B3 JUMP JUMPDEST PUSH2 0xE7 JUMP JUMPDEST STOP JUMPDEST PUSH2 0xB9 PUSH1 0x4 DUP1 CALLDATASIZE SUB DUP2 ADD SWAP1 PUSH2 0xB4 SWAP2 SWAP1 PUSH2 0x2F4 JUMP JUMPDEST PUSH2 0x244 JUMP JUMPDEST PUSH1 0x40 MLOAD PUSH2 0xC6 SWAP2 SWAP1 PUSH2 0x402 JUMP JUMPDEST PUSH1 0x40 MLOAD DUP1 SWAP2 SUB SWAP1 RETURN JUMPDEST PUSH1 0x0 PUSH1 0x20 MSTORE DUP1 PUSH1 0x0 MSTORE PUSH1 0x40 PUSH1 0x0 KECCAK256 PUSH1 0x0 SWAP2 POP SWAP1 POP SLOAD DUP2 JUMP JUMPDEST PUSH32 0x15D625B4B35864FFB5BDBB3FC4B62CEB07B3C588AF6945A1934CCB822A239755 DUP3 DUP3 PUSH1 0x40 MLOAD PUSH2 0x118 SWAP3 SWAP2 SWAP1 PUSH2 0x42C JUMP JUMPDEST PUSH1 0x40 MLOAD DUP1 SWAP2 SUB SWAP1 LOG1 PUSH1 0x0 DUP1 PUSH1 0x0 DUP5 DUP2 MSTORE PUSH1 0x20 ADD SWAP1 DUP2 MSTORE PUSH1 0x20 ADD PUSH1 0x0 KECCAK256 SLOAD SWAP1 POP PUSH1 0x0 DUP2 GT PUSH2 0x17A JUMPI PUSH1 0x40 MLOAD PUSH32 0x8C379A000000000000000000000000000000000000000000000000000000000 DUP2 MSTORE PUSH1 0x4 ADD PUSH2 0x171 SWAP1 PUSH2 0x4B2 JUMP JUMPDEST PUSH1 0x40 MLOAD DUP1 SWAP2 SUB SWAP1 REVERT JUMPDEST PUSH1 0x0 DUP1 PUSH1 0x0 DUP6 DUP2 MSTORE PUSH1 0x20 ADD SWAP1 DUP2 MSTORE PUSH1 0x20 ADD PUSH1 0x0 KECCAK256 DUP2 SWAP1 SSTORE POP PUSH1 0x0 DUP3 PUSH20 0xFFFFFFFFFFFFFFFFFFFFFFFFFFFFFFFFFFFFFFFF AND DUP3 PUSH1 0x40 MLOAD PUSH2 0x1B8 SWAP1 PUSH2 0x503 JUMP JUMPDEST PUSH1 0x0 PUSH1 0x40 MLOAD DUP1 DUP4 SUB DUP2 DUP6 DUP8 GAS CALL SWAP3 POP POP POP RETURNDATASIZE DUP1 PUSH1 0x0 DUP2 EQ PUSH2 0x1F5 JUMPI PUSH1 0x40 MLOAD SWAP2 POP PUSH1 0x1F NOT PUSH1 0x3F RETURNDATASIZE ADD AND DUP3 ADD PUSH1 0x40 MSTORE RETURNDATASIZE DUP3 MSTORE RETURNDATASIZE PUSH1 0x0 PUSH1 0x20 DUP5 ADD RETURNDATACOPY PUSH2 0x1FA JUMP JUMPDEST PUSH1 0x60 SWAP2 POP JUMPDEST POP POP SWAP1 POP DUP1 PUSH2 0x23E JUMPI PUSH1 0x40 MLOAD PUSH32 0x8C379A000000000000000000000000000000000000000000000000000000000 DUP2 MSTORE PUSH1 0x4 ADD PUSH2 0x235 SWAP1 PUSH2 0x564 JUMP JUMPDEST PUSH1 0x40 MLOAD DUP1 SWAP2 SUB SWAP1 REVERT JUMPDEST POP POP POP POP JUMP JUMPDEST PUSH1 0x0 DUP1 CALLVALUE GT PUSH2 0x288 JUMPI PUSH1 0x40 MLOAD PUSH32 0x8C379A000000000000000000000000000000000000000000000000000000000 DUP2 MSTORE PUSH1 0x4 ADD PUSH2 0x27F SWAP1 PUSH2 0x5F6 JUMP JUMPDEST PUSH1 0x40 MLOAD DUP1 SWAP2 SUB SWAP1 REVERT JUMPDEST CALLVALUE PUSH1 0x0 DUP1 DUP5 DUP2 MSTORE PUSH1 0x20 ADD SWAP1 DUP2 MSTORE PUSH1 0x20 ADD PUSH1 0x0 KECCAK256 PUSH1 0x0 DUP3 DUP3 SLOAD PUSH2 0x2AA SWAP2 SWAP1 PUSH2 0x645 JUMP JUMPDEST SWAP3 POP POP DUP2 SWAP1 SSTORE POP DUP2 SWAP1 POP SWAP2 SWAP1 POP JUMP JUMPDEST PUSH1 0x0 DUP1 REVERT JUMPDEST PUSH1 0x0 DUP2 SWAP1 POP SWAP2 SWAP1 POP JUMP JUMPDEST PUSH2 0x2D1 DUP2 PUSH2 0x2BE JUMP JUMPDEST DUP2 EQ PUSH2 0x2DC JUMPI PUSH1 0x0 DUP1 REVERT JUMPDEST POP JUMP JUMPDEST PUSH1 0x0 DUP2 CALLDATALOAD SWAP1 POP PUSH2 0x2EE DUP2 PUSH2 0x2C8 JUMP JUMPDEST SWAP3 SWAP2 POP POP JUMP JUMPDEST PUSH1 0x0 PUSH1 0x20 DUP3 DUP5 SUB SLT ISZERO PUSH2 0x30A JUMPI PUSH2 0x309 PUSH2 0x2B9 JUMP JUMPDEST JUMPDEST PUSH1 0x0 PUSH2 0x318 DUP5 DUP3 DUP6 ADD PUSH2 0x2DF JUMP JUMPDEST SWAP2 POP POP SWAP3 SWAP2 POP POP JUMP JUMPDEST PUSH1 0x0 DUP2 SWAP1 POP SWAP2 SWAP1 POP JUMP JUMPDEST PUSH2 0x334 DUP2 PUSH2 0x321 JUMP JUMPDEST DUP3 MSTORE POP POP JUMP JUMPDEST PUSH1 0x0 PUSH1 0x20 DUP3 ADD SWAP1 POP PUSH2 0x34F PUSH1 0x0 DUP4 ADD DUP5 PUSH2 0x32B JUMP JUMPDEST SWAP3 SWAP2 POP POP JUMP JUMPDEST PUSH1 0x0 PUSH20 0xFFFFFFFFFFFFFFFFFFFFFFFFFFFFFFFFFFFFFFFF DUP3 AND SWAP1 POP SWAP2 SWAP1 POP JUMP JUMPDEST PUSH1 0x0 PUSH2 0x380 DUP3 PUSH2 0x355 JUMP JUMPDEST SWAP1 POP SWAP2 SWAP1 POP JUMP JUMPDEST PUSH2 0x390 DUP2 PUSH2 0x375 JUMP JUMPDEST DUP2 EQ PUSH2 0x39B JUMPI PUSH1 0x0 DUP1 REVERT JUMPDEST POP JUMP JUMPDEST PUSH1 0x0 DUP2 CALLDATALOAD SWAP1 POP PUSH2 0x3AD DUP2 PUSH2 0x387 JUMP JUMPDEST SWAP3 SWAP2 POP POP JUMP JUMPDEST PUSH1 0x0 DUP1 PUSH1 0x40 DUP4 DUP6 SUB SLT ISZERO PUSH2 0x3CA JUMPI PUSH2 0x3C9 PUSH2 0x2B9 JUMP JUMPDEST JUMPDEST PUSH1 0x0 PUSH2 0x3D8 DUP6 DUP3 DUP7 ADD PUSH2 0x2DF JUMP JUMPDEST SWAP3 POP POP PUSH1 0x20 PUSH2 0x3E9 DUP6 DUP3 DUP7 ADD PUSH2 0x39E JUMP JUMPDEST SWAP2 POP POP SWAP3 POP SWAP3 SWAP1 POP JUMP JUMPDEST PUSH2 0x3FC DUP2 PUSH2 0x2BE JUMP JUMPDEST DUP3 MSTORE POP POP JUMP JUMPDEST PUSH1 0x0 PUSH1 0x20 DUP3 ADD SWAP1 POP PUSH2 0x417 PUSH1 0x0 DUP4 ADD DUP5 PUSH2 0x3F3 JUMP JUMPDEST SWAP3 SWAP2 POP POP JUMP JUMPDEST PUSH2 0x426 DUP2 PUSH2 0x375 JUMP JUMPDEST DUP3 MSTORE POP POP JUMP JUMPDEST PUSH1 0x0 PUSH1 0x40 DUP3 ADD SWAP1 POP PUSH2 0x441 PUSH1 0x0 DUP4 ADD DUP6 PUSH2 0x3F3 JUMP JUMPDEST PUSH2 0x44E PUSH1 0x20 DUP4 ADD DUP5 PUSH2 0x41D JUMP JUMPDEST SWAP4 SWAP3 POP POP POP JUMP JUMPDEST PUSH1 0x0 DUP3 DUP3 MSTORE PUSH1 0x20 DUP3 ADD SWAP1 POP SWAP3 SWAP2 POP POP JUMP JUMPDEST PUSH32 0x4E6F2062616C616E636520617661696C61626C6520746F20636C61696D000000 PUSH1 0x0 DUP3 ADD MSTORE POP JUMP JUMPDEST PUSH1 0x0 PUSH2 0x49C PUSH1 0x1D DUP4 PUSH2 0x455 JUMP JUMPDEST SWAP2 POP PUSH2 0x4A7 DUP3 PUSH2 0x466 JUMP JUMPDEST PUSH1 0x20 DUP3 ADD SWAP1 POP SWAP2 SWAP1 POP JUMP JUMPDEST PUSH1 0x0 PUSH1 0x20 DUP3 ADD SWAP1 POP DUP2 DUP2 SUB PUSH1 0x0 DUP4 ADD MSTORE PUSH2 0x4CB DUP2 PUSH2 0x48F JUMP JUMPDEST SWAP1 POP SWAP2 SWAP1 POP JUMP JUMPDEST PUSH1 0x0 DUP2 SWAP1 POP SWAP3 SWAP2 POP POP JUMP JUMPDEST POP JUMP JUMPDEST PUSH1 0x0 PUSH2 0x4ED PUSH1 0x0 DUP4 PUSH2 0x4D2 JUMP JUMPDEST SWAP2 POP PUSH2 0x4F8 DUP3 PUSH2 0x4DD JUMP JUMPDEST PUSH1 0x0 DUP3 ADD SWAP1 POP SWAP2 SWAP1 POP JUMP JUMPDEST PUSH1 0x0 PUSH2 0x50E DUP3 PUSH2 0x4E0 JUMP JUMPDEST SWAP2 POP DUP2 SWAP1 POP SWAP2 SWAP1 POP JUMP JUMPDEST PUSH32 0x4661696C656420746F2073656E64204574686572000000000000000000000000 PUSH1 0x0 DUP3 ADD MSTORE POP JUMP JUMPDEST PUSH1 0x0 PUSH2 0x54E PUSH1 0x14 DUP4 PUSH2 0x455 JUMP JUMPDEST SWAP2 POP PUSH2 0x559 DUP3 PUSH2 0x518 JUMP JUMPDEST PUSH1 0x20 DUP3 ADD SWAP1 POP SWAP2 SWAP1 POP JUMP JUMPDEST PUSH1 0x0 PUSH1 0x20 DUP3 ADD SWAP1 POP DUP2 DUP2 SUB PUSH1 0x0 DUP4 ADD MSTORE PUSH2 0x57D DUP2 PUSH2 0x541 JUMP JUMPDEST SWAP1 POP SWAP2 SWAP1 POP JUMP JUMPDEST PUSH32 0x4465706F7369742076616C7565206D7573742062652067726561746572207468 PUSH1 0x0 DUP3 ADD MSTORE PUSH32 0x616E203000000000000000000000000000000000000000000000000000000000 PUSH1 0x20 DUP3 ADD MSTORE POP JUMP JUMPDEST PUSH1 0x0 PUSH2 0x5E0 PUSH1 0x24 DUP4 PUSH2 0x455 JUMP JUMPDEST SWAP2 POP PUSH2 0x5EB DUP3 PUSH2 0x584 JUMP JUMPDEST PUSH1 0x40 DUP3 ADD SWAP1 POP SWAP2 SWAP1 POP JUMP JUMPDEST PUSH1 0x0 PUSH1 0x20 DUP3 ADD SWAP1 POP DUP2 DUP2 SUB PUSH1 0x0 DUP4 ADD MSTORE PUSH2 0x60F DUP2 PUSH2 0x5D3 JUMP JUMPDEST SWAP1 POP SWAP2 SWAP1 POP JUMP JUMPDEST PUSH32 0x4E487B7100000000000000000000000000000000000000000000000000000000 PUSH1 0x0 MSTORE PUSH1 0x11 PUSH1 0x4 MSTORE PUSH1 0x24 PUSH1 0x0 REVERT JUMPDEST PUSH1 0x0 PUSH2 0x650 DUP3 PUSH2 0x321 JUMP JUMPDEST SWAP2 POP PUSH2 0x65B DUP4 PUSH2 0x321 JUMP JUMPDEST SWAP3 POP DUP3 DUP3 ADD SWAP1 POP DUP1 DUP3 GT ISZERO PUSH2 0x673 JUMPI PUSH2 0x672 PUSH2 0x616 JUMP JUMPDEST JUMPDEST SWAP3 SWAP2 POP POP JUMP INVALID LOG2 PUSH5 0x6970667358 0x22 SLT KECCAK256 0xC6 0xED PUSH29 0x56218A77B5A9D4DE3D30AC72AF277241457F64CE15B2D82249E9DA880A PUSH5 0x736F6C6343 STOP ADDMOD SGT STOP CALLER "},"methodIdentifiers":{"balances(bytes32)":"8909aa3f","claim(bytes32,address)":"96c144f0","deposit(bytes32)":"b214faa5"}}}}}