{
  "_format": "hh-sol-artifact-1",
  "contractName": "eZKlaimNoVerify",
  "sourceName": "contracts/ezklaimNoVerify.sol",
  "abi": [
    {
      "anonymous": false,
      "inputs": [
        {
          "indexed": false,
          "internalType": "bytes32",
          "name": "hash",
          "type": "bytes32"
        },
        {
          "indexed": false,
          "internalType": "address",
          "name": "dest",
          "type": "address"
        }
      ],
      "name": "Claim",
      "type": "event"
    },
    {
      "inputs": [
        {
          "internalType": "bytes32",
          "name": "",
          "type": "bytes32"
        }
      ],
      "name": "balances",
      "outputs": [
        {
          "internalType": "uint256",
          "name": "",
          "type": "uint256"
        }
      ],
      "stateMutability": "view",
      "type": "function"
    },
    {
      "inputs": [
        {
          "internalType": "bytes32",
          "name": "hash",
          "type": "bytes32"
        },
        {
          "internalType": "address",
          "name": "destination",
          "type": "address"
        }
      ],
      "name": "claim",
      "outputs": [],
      "stateMutability": "nonpayable",
      "type": "function"
    },
    {
      "inputs": [
        {
          "internalType": "bytes32",
          "name": "hash",
          "type": "bytes32"
        }
      ],
      "name": "deposit",
      "outputs": [
        {
          "internalType": "bytes32",
          "name": "",
          "type": "bytes32"
        }
      ],
      "stateMutability": "payable",
      "type": "function"
    }
  ],
  "bytecode": "0x608060405234801561001057600080fd5b506106af806100206000396000f3fe6080604052600436106100345760003560e01c80638909aa3f1461003957806396c144f014610076578063b214faa51461009f575b600080fd5b34801561004557600080fd5b50610060600480360381019061005b91906102f4565b6100cf565b60405161006d919061033a565b60405180910390f35b34801561008257600080fd5b5061009d600480360381019061009891906103b3565b6100e7565b005b6100b960048036038101906100b491906102f4565b610244565b6040516100c69190610402565b60405180910390f35b60006020528060005260406000206000915090505481565b7f15d625b4b35864ffb5bdbb3fc4b62ceb07b3c588af6945a1934ccb822a239755828260405161011892919061042c565b60405180910390a160008060008481526020019081526020016000205490506000811161017a576040517f08c379a0000000000000000000000000000000000000000000000000000000008152600401610171906104b2565b60405180910390fd5b60008060008581526020019081526020016000208190555060008273ffffffffffffffffffffffffffffffffffffffff16826040516101b890610503565b60006040518083038185875af1925050503d80600081146101f5576040519150601f19603f3d011682016040523d82523d6000602084013e6101fa565b606091505b505090508061023e576040517f08c379a000000000000000000000000000000000000000000000000000000000815260040161023590610564565b60405180910390fd5b50505050565b6000803411610288576040517f08c379a000000000000000000000000000000000000000000000000000000000815260040161027f906105f6565b60405180910390fd5b3460008084815260200190815260200160002060008282546102aa9190610645565b92505081905550819050919050565b600080fd5b6000819050919050565b6102d1816102be565b81146102dc57600080fd5b50565b6000813590506102ee816102c8565b92915050565b60006020828403121561030a576103096102b9565b5b6000610318848285016102df565b91505092915050565b6000819050919050565b61033481610321565b82525050565b600060208201905061034f600083018461032b565b92915050565b600073ffffffffffffffffffffffffffffffffffffffff82169050919050565b600061038082610355565b9050919050565b61039081610375565b811461039b57600080fd5b50565b6000813590506103ad81610387565b92915050565b600080604083850312156103ca576103c96102b9565b5b60006103d8858286016102df565b92505060206103e98582860161039e565b9150509250929050565b6103fc816102be565b82525050565b600060208201905061041760008301846103f3565b92915050565b61042681610375565b82525050565b600060408201905061044160008301856103f3565b61044e602083018461041d565b9392505050565b600082825260208201905092915050565b7f4e6f2062616c616e636520617661696c61626c6520746f20636c61696d000000600082015250565b600061049c601d83610455565b91506104a782610466565b602082019050919050565b600060208201905081810360008301526104cb8161048f565b9050919050565b600081905092915050565b50565b60006104ed6000836104d2565b91506104f8826104dd565b600082019050919050565b600061050e826104e0565b9150819050919050565b7f4661696c656420746f2073656e64204574686572000000000000000000000000600082015250565b600061054e601483610455565b915061055982610518565b602082019050919050565b6000602082019050818103600083015261057d81610541565b9050919050565b7f4465706f7369742076616c7565206d757374206265206772656174657220746860008201527f616e203000000000000000000000000000000000000000000000000000000000602082015250565b60006105e0602483610455565b91506105eb82610584565b604082019050919050565b6000602082019050818103600083015261060f816105d3565b9050919050565b7f4e487b7100000000000000000000000000000000000000000000000000000000600052601160045260246000fd5b600061065082610321565b915061065b83610321565b925082820190508082111561067357610672610616565b5b9291505056fea2646970667358221220c6ed7c56218a77b5a9d4de3d30ac72af277241457f64ce15b2d82249e9da880a64736f6c63430008130033",
  "linkReferences": {},
  "deployedLinkReferences": {}
}